:020000041000EA
:1000000000B5324B212058609868022188439860DF
:10001000D860186158612E4B002199600221596106
:100020000121F02299502B49196001219960352056
:1000300000F044F80222904214D00621196600F024
:1000400034F8196E01211966002018661A6600F04E
:100050002CF8196E196E196E052000F02FF8012189
:100060000842F9D1002199601B49196000215960AB
:100070001A491B48016001219960EB211966A021F2
:10008000196600F012F800219960164914480160C1
:100090000121996001BC002800D000471248134993
:1000A000086003C880F30888084703B5996A0420EC
:1000B0000142FBD001200142F8D103BD02B5186610
:1000C0001866FFF7F2FF186E186E02BD00000240BE
:1000D000000000180000070000035F00212200005C
:1000E000F4000018222000A00001001008ED00E03C
:1000F00000000000000000000000000074B24E7A12
:1001000000200420F7010010C3010010C5010010F9
:10011000C1010010C1010010C1010010C101001097
:10012000C1010010C1010010C1010010C701001081
:10013000C1010010C1010010C9010010CB01001065
:10014000CD010010CD010010CD010010CD01001037
:10015000CD010010CD010010CD010010CD01001027
:10016000CD010010CD010010CD010010CD01001017
:10017000CD010010CD010010CD010010CD01001007
:10018000CD010010CD010010CD010010CD010010F7
:10019000CD010010CD010010CD010010CD010010E7
:1001A000CD010010CD010010CD010010CD010010D7
:1001B000CD010010CD010010CD010010CD010010C7
:1001C00000BE00BE00BE00BE00BE00BEEFF3058054
:1001D000103800BEF2EB88714450051068500510CD
:1001E0003402001090A31AE700201F49086006C8D7
:1001F00081F3088810471D48006800282FD10DA4FE
:100200000ECC002902D000F012F8F9E71849194A7B
:10021000002000E001C19142FCD1174988471749ED
:1002200088471749884700BEFDE701C901C29A42C5
:10023000FBD3704768500510C000002078170020DD
:10024000206705100000042000000420206705102E
:10025000001004200010042000000000704709482E
:1002600001F0E8F80047000008ED00E0000000D0D1
:1002700098170020FCE50020BD1B01108903001029
:10028000791B01105756000006005250ABB3605363
:10029000C849051006005250861C0302D8490510B3
:1002A000060052505422A29DE84905100500525004
:1002B000DE65F46820670510F8B5C04610B5064C39
:1002C0002378002B07D1054B002B02D0044800E017
:1002D00000BF0123237010BDF018002000000000B3
:1002E000E8790110044B10B5002B03D003490448F2
:1002F00000E000BF10BDC04600000000F418002060
:10030000E879011010B51C2001F0A6FAD0231B06D5
:10031000802252059A621F211C2001F0C1F900229F
:1003200000211C2001F0D4F900211C2001F07CFAEE
:1003300016F03EFB104B1A6880239B015340E022CD
:10034000D20113400D4A13600D490E4816F0D6FC39
:100350000321042001F0A4F90321052001F0A0F9F4
:1003600000220121042001F0B3F90022012105201F
:1003700001F0AEF910BDC04600C0044000D00440FA
:10038000801A0600100F002070B592B0FFF7BAFF78
:1003900014F068F8C6214900012013F0DFFE4C4B31
:1003A000186000286DD00023C422520083548A2292
:1003B000FF328354474A04301ACA1AC01ACA1AC0F4
:1003C000136803600CF0F0FB00285FD10CF0BAFA60
:1003D000414B424A424943480CF07EFB051E5CD12A
:1003E00011A941480CF0FAF8041E5BD0384C26687D
:1003F00011F0D0F9306023683C4A3D49186811F08B
:10040000BDF92068031D019300903A4B3A4A11A9A7
:10041000006811F0C7F9002848D102F065F9374C9F
:1004200000250AAB029300260196354B009322006B
:100430002B0002F0A1FA300000F0F6F8012000F0E5
:10044000F3F802F051F904AB029301962D4B00939F
:1004500022002B0002F090FA2B4B1B78DB072AD4EA
:10046000294B1B785B07F7D5194B1968274B1A687E
:10047000086800F005FA244A137804218B431370AE
:10048000EAE7234813F0B2FF002403E0214813F009
:10049000ADFF0124200012B070BD1F4813F0A6FF6D
:1004A0000124F7E71D4813F0A1FFF3E71C4813F000
:1004B0009DFF2C00EEE7064B19681A4B1A68086876
:1004C00000F0A4F9104A137801218B431370C7E799
:1004D0005CD30020B80D00203075000004004000FF
:1004E000207A01102C7A01104C7A0110E9080010D2
:1004F0002D0900104D0900105B07000040420F005D
:10050000D9050010CD070010B01E0020AC3300202C
:10051000E8790110087A0110387A01105C7A01102C
:10052000687A0110E02E002010B5214B04221A60D9
:10053000204B1B68DB05FBD51E4B58680004000CE4
:1005400013F09AFD13F0BAFD00221B4B12F003FFCB
:100550001A4A1B4B12F019FF12F0D0FFFC2189053B
:1005600013F063FD041C13F0A9FD164A164B12F09C
:1005700069FF002817D01549201C13F070FD13F0F7
:100580009DFD0E4A0E4B12F0E6FE12F0B7FF104B27
:1005900018600F4B186813F091FD02000B000D4816
:1005A00013F054FF10BD0A4B00221A60F1E7C04659
:1005B00000E0044000C0044000FEAF40666666668E
:1005C00066660A40B81E85EB51B8F23F000016433C
:1005D000E02E0020807A011010B5FFF7A5FF034A36
:1005E000137801210B43137010BDC046B01E0020CC
:1005F00010B583040FD5C004C00C13F037FD8C2157
:10060000C90513F012FDE821890513F028FD0549FD
:1006100013F025FD10BD13F029FDE821890513F025
:100620001EFDF4E7C3F51C4110B582B0040001289B
:100630000CD00D4A2A231370547000230093023308
:100640001C210A4816F086FB02B010BD064A0E2394
:1006500013700D3B53700023009302331C21034899
:1006600016F078FBE5E7C046B41F0020100F00200D
:10067000F0B5CE46474680B583B0484D0123994634
:100680000093474A1C21280016F064FB454C0027C4
:100690000097022322001C21280016F067FB237814
:1006A0009B01607880081843FFF7A2FF3E4E306040
:1006B0004B4600933D4A1C21280016F04BFB009747
:1006C000022322001C21280016F050FB23789B01F6
:1006D000607880081843FFF78BFF354B9846186009
:1006E0004B460093334A1C21280016F033FB009739
:1006F000022322001C21280016F038FB23789B01DE
:10070000607880081843FFF773FF13F0D7FC2A4A7C
:100710002A4B12F016FE12F0F1FE294B9946186092
:1007200000248025ED05306813F0C8FC22002B0062
:1007300013F086FA06000F004346186813F0BEFC5B
:1007400022002B0013F07CFA02000B00300039006D
:1007500012F0FCFD06000F004B46186813F0AEFCCB
:1007600022002B0013F06CFA02000B00300039005D
:1007700012F0ECFD12F0CAFE12F0C0FE114B186030
:10078000186813F09BFC02000B000F4813F05EFE8C
:1007900003B0C0BCB946B046F0BDC046100F002043
:1007A000C57A0110B41F0020C0E50020C67A0110F0
:1007B000C8E50020C77A01109A9999999999234020
:1007C000CCE50020AC330020A07A011010B5FFF773
:1007D0004FFF034A137804210B431370012010BD0F
:1007E000B01E002010B5002900D110BD014813F043
:1007F0002DFEFAE7C87A011010B50A0041680248D8
:1008000013F024FE10BDC046DC7A011030B589B06B
:1008100004000D00101C13F051FC02000B001349E2
:1008200005A812F0F9FA05A9114813F00FFE0FF010
:100830005DFE05A816F06CFE83B203950D4A029288
:10084000002201920232009205AA0B49200010F00A
:1008500045FE04000FF054FE002C02D1200009B028
:1008600030BD2100054813F0F1FDF7E7047B0110CE
:10087000087B0110E50700101C7B0110287B01108C
:1008800030B589B004000D00101C13F017FC0200F5
:100890000B00114905A812F0BFFA0FF027FE05A8BA
:1008A00016F036FE83B203950C4A029200220192A2
:1008B0000232009205AA0A49200010F00FFE04003F
:1008C0000FF01EFE002C02D1200009B030BD210027
:1008D000044813F0BBFDF7E7047B0110E5070010A7
:1008E0003C7B0110287B011070B505000E00140040
:1008F0000C4813F0ABFD280020302200310016F028
:100900006FFEC2235B00EC502C19203400232370AF
:100910008A22FF320121A954034A1168C4225200DD
:100920008B5470BD547B01105CD3002070B5040063
:100930000D00054813F08AFD20002130FF3029000A
:1009400016F0DEFD70BDC0466C7B0110F0B583B0C3
:1009500006000D00140049680E4813F077FD002CC6
:1009600001D003B0F0BD0C4813F070FD0B4C012713
:1009700001970095230000220949300010F058FE2D
:1009800001970095230000220649300010F050FE28
:10099000E7E7C046887B0110B47B0110F90700101F
:1009A000CC7B0110D47B011010B5064B8B4202D1D9
:1009B00008F052FB10BD044B044A1821044811F002
:1009C000DFF8C046E80D0020007C0110487D0110D2
:1009D000207C0110F8B50400204B994212D101236C
:1009E0000B7208F063FB0500431C11D11C4B186807
:1009F00059681C4B9860D96023685B6919492000CD
:100A00009847F8BD184B194A1D21194811F0B8F83C
:100A100002F05CF906000F1E10DBFA2292000023A0
:100A20002800002113F0E4FA36184F41002F0BDBA9
:100A3000002F0DDB0B4B9E60DF60DDE70D4B0E4A98
:100A40003F210E4811F09CF8012676420C4FEFE74B
:100A5000084B094A3F21094811F092F8D40D0020B3
:100A6000C08B0110E80D0020807C0110607D01101A
:100A7000207C0110B07C0110307D0110CC7C011075
:100A8000FFFFFF7F10B50400094B1B78002B08D037
:100A9000084901230B722368DB6920009847012075
:100AA00010BD02F045FD024B01221A70F0E7C0466E
:100AB000EAE50020D40D002010B5040003689B690E
:100AC0000349984723681B6A02492000984710BDD4
:100AD000E80D0020D40D0020002070477047000072
:100AE00010B502F0F3F8002906DB0BD0FA229200D1
:100AF000002312F029FA10BD054B064A3F21064893
:100B000011F03EF8FA21890012F0E0F9F3E7C0464F
:100B1000B07C0110307D0110CC7C0110083000E069
:100B200018000368002B03D08B42F9D1002002E0AB
:100B300001600B6001207047083000E01800036876
:100B4000002B05D08B42F9D10B680360012000E037
:100B500000207047043000E018000368002B03D029
:100B60008B42F9D1002002E001600B600120704748
:100B7000043000E018000368002B05D08B42F9D147
:100B80000B680360012000E000207047F8B5060004
:100B90008068002833D002F099F8002906DB0400B1
:100BA0000D0008239C46B44400220CE0154B164A65
:100BB0003F21164810F0E4FF154B164A4221164813
:100BC00010F0DEFF9C4663461B68002B12D020000D
:100BD00029009E68DF68801BB9410029F2DB3400E0
:100BE0003D000E490A684968724079400A43E3D0E3
:100BF0006246E7E7002A03D0106803681360F8BD77
:100C00001000FCE7B07C0110087E0110CC7C0110C4
:100C1000747D0110207E0110987D0110C08B0110A1
:100C2000F0B583B0104B5C681B6800930194836837
:100C300004E0DC689B68009301940B00002B0CD04F
:100C40001968009C019D9E68DF68A41BBD41002DB2
:100C5000EFDCF2D1002CECD1EFE7009B019C0361AB
:100C6000446103B0F0BDC046C08B011070B50600F2
:100C70000D0002E04B68280098472800FFF786FF28
:100C8000011EF7D16C6800E02468002C09D0237A9B
:100C9000002BF9D0002323722100280063689847B5
:100CA000F2E72800FFF7BCFF2B696C6933607460C2
:100CB000300070BD034B1B6802201840431E984152
:100CC000C0B2704700C0064010B5104A104B121851
:100CD0004B419900900F0843990F504059400D4ADD
:100CE0000D4B13F085F903004A01C00E1043CA0EE4
:100CF00058405140094A0A4B13F07AF903004A0060
:100D0000C00F1043CA0F5840514010BD157C4A7F98
:100D1000B979379EB9E5E41C6D4758BFEB11311323
:100D2000BB49D094F0B5C64600B584B002000B00B4
:100D300013498C461BE0614601C900908C46002196
:100D40000191910E9F010F4396010098019980191E
:100D5000794102900391110C1D040D431404029873
:100D6000039900196941801A994102000B00054955
:100D70008C45E0D91000190004B080BCB846F0BD25
:100D8000001C0420FF1F0420F0B5CE46474680B566
:100D900083B0804603684468009301940300806830
:100DA000D96801E001F092FF009C019D23002B43D4
:100DB00002D103000B43F5D0009C019DA60FAB00B0
:100DC0003343A2002E002500AD185E416B0E9946FC
:100DD000F3019C464B46624613431F00730EEA0123
:100DE00013431E005B0F9C46FB0064462343F20046
:100DF00092197B41009C019D60406940260A2F06A4
:100E00003E432D0A009C24062C43444035004D40AF
:100E1000070C0E043E4307047C4075404646346090
:100E200075604C01C50E2C434001C90E0843B460E7
:100E3000F0601000190003B0C0BCB946B046F0BD68
:100E4000F0B5DE4657464E464546E0B583B00190C4
:100E5000574B9B69DB0410D5564BDA6BE0231340EC
:100E6000402B0AD0EFF305839846019B002B0AD054
:100E700000239946002400258AE04F4B4F4A8121E8
:100E80004F4810F07DFE4F4B4C4A86214C4810F0E5
:100E900077FE4D4B1868596801F0BAFDEFF31086E4
:100EA00072B64A4B1B68002BFBD0BFF35F8F464BDB
:100EB00019685A688A4516D0BFF35F8F434B0022EA
:100EC0001A6086F310885B46002B5ED13E4B1A6891
:100ED00092465F684346002BDBD03B4B186859684D
:100EE00001F000FFDAE7BA42E6D12000290000193C
:100EF00069412F4BDA690123134003431C000D00A5
:100F000001F0E4FE02000B1E23DB0A200021121870
:100F10004B41002B23DB002B25DB2B490A604B6068
:100F200001994B1E4B452DD1294A20235B42CB18FA
:100F30001FD4116899400B00126801998A4022431E
:100F40002B4314001D00224B1C605D6001239B4657
:100F5000B2E7204B204A3F21204810F011FE012229
:100F600052421F4BD7E71B4B1B4A3F211B4810F037
:100F700007FE202301981B1A1168D940536883404B
:100F80000B43D9E701239B4696E701239C46E144A6
:100F9000019B994502D200239B4697E72000290038
:100FA00003B0F0BCBB46B246A946A046F0BDC04661
:100FB0000000064000800040507E0110947F011028
:100FC000187F011004A70110E8180020300100D09C
:100FD00090170020B07C01107C7F0110CC7C0110A8
:100FE000FFFFFF7F10B588B03B4C20686168FFF7BA
:100FF00099FE20606160FFF767FE049B5840059BE7
:10100000019359400490059102A800F011F902984B
:101010000399FFF759FE069B01935840079B0193E4
:101020005940069007914020FFF70AFFFFF74CFE5A
:10103000049B5840059B019359400490059101F091
:1010400045FEFFF741FE069B01935840079B019325
:10105000594006900791EFF3108472B61F4B1B683E
:10106000002BFBD0BFF35F8F1D4B1B78002B24D1CF
:10107000032B09D85A1CD2001A498C466244526884
:101080001F2A03D00133F3E701235B425A1C1DD012
:10109000DBB2154A13700133DB00124A94466344F5
:1010A00005225A6004A8FFF76FFE102204A90F481A
:1010B00013F074F80A4B01221A70BFF35F8F074BCD
:1010C00000221A6084F3108808B010BD084B094A4A
:1010D000E921094810F054FD78170020300100D0B4
:1010E000F4E5002000000340E5E500208017002023
:1010F000707F0110B47F0110187F011070B586B0A9
:101100003E4B1B78002B00D16EE010223C4902A818
:1011100013F044F83B4B1C78E4B201F0D7FDFFF725
:10112000D3FD029B5840039B0193594002900391C9
:101130000120FFF785FEFFF7C7FD049B0193584090
:10114000059B01935940049005912F4B1A78531C2D
:10115000DB002E4958582E4B984248D00021FFF70B
:10116000B3FD029B5840039B0193594002900391A9
:10117000EFF3108672B6274B1B68002BFBD0BFF332
:101180005F8F204B1B78DBB2A34213D01C4B02991C
:101190001A685140039A01925868424002910392A2
:1011A0009A68DB68049901914A40059901914B4086
:1011B0000492059302A8FFF7E7FD05000C0010223A
:1011C00002A90F4812F0EAFF0E4A13780133DBB28E
:1011D0001370BFF35F8F0F4B00221A6086F31088E5
:1011E0002800210006B070BDFFF7FCFE8DE701323C
:1011F000D2000B000021D150B0E7C046F4E500203A
:1012000080170020E6E50020E5E50020000003400F
:10121000FFFFFF00300100D010B5FFF76FFF10BDDA
:1012200010B5024800F03CF810BDC04658E300205D
:1012300010B50822014912F0B1FF10BD58E300209B
:1012400010B5002901D000230AE0114B114A1F31CB
:10125000114810F095FC00240DE03732C2540133E0
:101260004A1E9A420FD90F2B0DD85A080B4CA25C7C
:10127000DC07F0D40424224114000F222240092A62
:10128000EBDC3032EAE7C0180023037010BDC04623
:10129000C47F011030800110CC7F011058E3002082
:1012A00070B588B0040004AD002604960922002120
:1012B00005A812F06DFF00960922002101A812F086
:1012C00067FF4B232B700D226946280016F0FCFAAD
:1012D000002304E05A1D69468A5CE2540133072B5F
:1012E000F8DD08B070BD0000EFF3108072B6034B5C
:1012F0001B68002BFBD0BFF35F8F70472C0100D021
:10130000BFF35F8F024B00221A6080F31088704792
:101310002C0100D0F8B506000C001500FFF7E4FF23
:10132000E308F718F15C07222240012393400B42A7
:1013300005D1DBB20B433B70FFF7E2FFF8BD2100A4
:10134000280010F0B7FCF0B583B00600019114003E
:101350001F00FFF7C9FF00E00134BC420CD8E308CE
:10136000F518F35C0721214001228A401A42F3D18B
:10137000D2B21A432A7001E001246442FFF7C0FF91
:10138000002C02DB200003B0F0BD019B002BF9D044
:10139000089810F08FFC000070B505000C00FFF7F6
:1013A000A3FFE308EE18EA5C07210C400123A340E9
:1013B000134204D09A433270FFF7A2FF70BD034B73
:1013C000034A2C31034810F0DBFBC046D8810110E2
:1013D00058820110F8810110002307E0054A9A188D
:1013E0009200BFF35F8F0021116001331F2BF5D9ED
:1013F0007047C04640000034054A1078431CDBB2F9
:101400001370172B02D9130010221A707047C046B0
:10141000000E002000B583B00100044B00931F2391
:1014200018220348FFF78FFF03B000BD6882011048
:10143000CC1F002010B5010018231B88142210882F
:10144000984710BD10B5010018231B88162210887C
:10145000984710BDF0B5C64600B507000E00002540
:101460000123984600E00135B5420AD2AC003C1990
:101470002068FFF7DFFF20600028F4D100239846A2
:10148000F1E7404680BCB846F0BD0000F8B5DE4646
:1014900057464E464546E0B505000F0092460A9A6B
:1014A000934250D31A0E91461E020A9A002330002E
:1014B000494611F049FD80466C006419A400304B88
:1014C0009C4664446368834200D260602B1FDBB299
:1014D0009B46012B3DD9C0239B012343802212014F
:1014E0001A60AB00274A9958002907D0506911F0BB
:1014F000EDFC431C5800C0180338FDD253465A0176
:1015000023685A40E0231A4080235B0123431A607A
:101510005A46012A28D980239B01234380221201A5
:101520001A6043466360424600233000494611F08A
:101530000BFDAD00134B58510120F0BCBB46B24629
:10154000A946A046F8BD104B104A3321104810F0B0
:1015500017FB012FBFD1C0239B01234303221A6035
:10156000A368DB07FCD5C9E72168794003220A405C
:101570001A60A2680123BB401342FAD0CBE7C046F1
:1015800000800040D01F002084820110F8820110EA
:101590009882011030B583B00C2001F043FFFFF7B3
:1015A00089FB00280DD0002304E099002D4A2E4825
:1015B00088500133092BF8D92A4B2C4A5A6203B0C0
:1015C00030BD2B4B00229A6701F09EFF294B012270
:1015D0001A60274B5B6C012BFBD1274B03221A604F
:1015E000234B9B6B012BFBD1013300930433234A24
:1015F0000121234801F086FE05230093214A0121A1
:10160000214801F07FFE214B00930022022104209B
:10161000FFF73CFF1E4D00952B0000220121052005
:10162000FFF734FF104C0094230000220021072014
:10163000FFF72CFF00942300002200210820FFF771
:1016400025FF0A4B00932300002200210920FFF709
:101650001DFF00952B00002200210620FFF716FF3A
:10166000ADE7C046D01F0020006CDC021BB70000B5
:10167000008000403CB0004030B00040002F68596E
:1016800000800240008C864700C00240001BB7006B
:10169000405973078000014BC0587047D01F00208D
:1016A00010B58300084A944663441C684022624097
:1016B000C02414408022520113431C60C000034B1D
:1016C0009C466044416010BD04C0014000400140A0
:1016D00080000B4B9C46604400290DD00823002A53
:1016E0000CD004221343026853400C221340802282
:1016F00052011043036070470023F0E70022F1E736
:1017000004C00140002909D08000094B9C46604478
:1017100080239B0118430223036070478000044B21
:101720009C466044C0239B01184302230360F4E7F6
:1017300004C0014070B5D0231B061B689D00094CF6
:101740002C59204207D19B002043064C18510D20F4
:1017500000F05AF970BD044B044ACC21044810F043
:101760000FFAC04644E3002008830110E083011013
:101770003483011010B50400D0231B061B689B00A6
:101780000A4A9B5818420BD00D2000F057FAD0237C
:101790001B061B6805499B005A58A2435A5010BDAE
:1017A000034B044AD621044810F0EAF944E3002030
:1017B00090830110BC830110348301100723034080
:1017C0009B00C00899403C308000014BC1507047DD
:1017D00000400140F8B507000C0016001D00FFF79F
:1017E000EDFFFB089B00ED18072038408000844087
:1017F000002E04D080239B011D432C60F8BDC02324
:101800009B011D432C60F9E710B5D0231B061B6814
:10181000002B03D0024BFFF7DDFF10BD014BFAE7B1
:101820003041014000410140002909D08000094BAE
:101830009C46604480239B0118434023036070470B
:101840008000044B9C466044C0239B011843402306
:101850000360F4E704C0014010B501238340D022A7
:101860001206936293610521FFF71AFF10BD000075
:10187000074B9B68103080001950BFF35F8FBFF398
:101880005F8F044B0021196082F310887047C046B7
:1018900000ED00E0240100D01F23181A704700005B
:1018A00010B5091A081F0A4B9C466144094A914227
:1018B00008D8C30706D440104005400D064B184316
:1018C00080B210BD054B064AA321064810F058F916
:1018D000FC070000FE0F000000E0FFFF1484011071
:1018E000A08601104484011010B5091A04394C086F
:1018F000090B08D14905490D064A11430180064BE1
:101900002343438010BD054B054AAB21054810F029
:1019100037F9C04600F0FFFF00F8FFFFA084011078
:10192000748601104484011001238340034A106827
:101930001840431E9841C0B27047C04600E100E025
:10194000002904D0034B1860034B18607047034B09
:101950001860FBE780E200E000E100E080E100E0E9
:1019600010B5012383401800FFF7EAFF10BD000007
:1019700001238340014A13607047C04600E200E043
:10198000024B9B6810308000C058704700ED00E0AB
:1019900010B5FFF7F5FF002805D0054BC01A2F281A
:1019A00003D8012010BD0020FCE70020FAE7C04664
:1019B000040E002070B504000D00EFF3108672B61F
:1019C0000C4B1B68002BFBD0BFF35F8F2000FFF791
:1019D000D7FF094B984201D0A84205D13200290017
:1019E0002000FFF745FF70BD044B054A86210548DE
:1019F00010F0C6F8240100D0CD010010B084011011
:101A0000D486011044840110F0B5DE4657464E4698
:101A10004546E0B589B0814601911500EFF3108A83
:101A200072B6744B1B68002BFBD0BFF35F8F724BF9
:101A30000027DF57002F40DB7C00E419A4006F482B
:101A400024180622A2566C4B1A706D4B9A684B46AE
:101A500010339B00D35898461E001B1A2F2B38D9E1
:101A6000684B98452FD105AE674B33807B009B4672
:101A7000D8198000614B9846404402306349FFF713
:101A80000FFF7080624BB380FF23B371F571019B30
:101A900007935F44BF0047440ECE0EC701231C438B
:101AA000A046524641464846FFF7E2FE09B0F0BC68
:101AB000BB46B246A946A046F0BD564B564AD72172
:101AC000564810F05DF8564B534ADE21534810F04B
:101AD00057F8C04340440C2111F0F8F9002912D105
:101AE00001239E43B34633000026DA79AA4211D976
:101AF0000621595600290CDB4A00521892001E009C
:101B00003E4B9B18F1E7474B434AEA21434810F00C
:101B100037F81E00002E3AD005AB434A1A80813AAE
:101B20005A800623F3560293002B17DA3F4805AB81
:101B30009B469880029A9A71DD71019A0792301D36
:101B40002100FFF7ADFEB080B7717B00DB199B0071
:101B50002A4FFF185B4607CB07C7A2E77800C019DA
:101B60008000264BC0180430321DB388D90A1C29C6
:101B700007D15B055915023149005118FFF790FE56
:101B8000D5E72B4B2B4AB12124480FF0F9FF05AEC6
:101B90001D4B33807B000293D8198000174A904672
:101BA000020042440392901C1849FFF779FE7080AE
:101BB000039A101D5946FFF773FEB0801E4B5A461C
:101BC0004146521A524153431B0DB371F571019AAC
:101BD0000792029B9C466744BF0047440ECE0EC747
:101BE000114B5A461380813B538001231C43A0466E
:101BF00057E7C046240100D0EDE50020040E002088
:101C000000ED00E0CD01001000A1FFFF340E002028
:101C100001BDFFFFE8840110BC860110448401105F
:101C200010850110388501100148000001BD000039
:101C3000AC850110AC860110AAAA0000F0B5CE4612
:101C4000474680B583B006000D00EFF3108872B6EA
:101C5000564B1B68002BFBD0BFF35F8F544B9A6829
:101C600034001034A300D758524B9F4207D0AF42E4
:101C700000D198E00197504BFB1A2F2B09D942460F
:101C800039003000FFF7F4FD03B0C0BCB946B046E0
:101C9000F0BD3000FFF748FE814600213000FFF71D
:101CA0005FFEBFF35F8FEFF30581002901D08C4207
:101CB00011D10123019C9C430022A368AB4212D0A6
:101CC0000622A256002A0DDB53009B189B0022001F
:101CD000394CE418F1E73621384B394AFF3139489D
:101CE0000FF04EFF2200AB4256D106256557002D5E
:101CF00038DB6B005B199A002F4B9B189A68A26027
:101D0000DA79E27106229A56A2719B795BB2002BB6
:101D10000FDA2D48A0806B005B199B00264AD31870
:101D20002A4A11789971157049463000FFF718FE5C
:101D3000A5E7201D6B005B199B001F4A9B181A1D0D
:101D40009B88D90A1C2907D15B055B150233590012
:101D50005118FFF7A5FDDDE71D4B1E4AB1211948BB
:101D60000FF00EFF002912D1002A0ED0FF2393712D
:101D7000194B9380154A1378A371184B0E49641AB6
:101D8000644163431B0D1370CEE70A4FF2E7201D39
:101D90001349FFF7A9FDC7E76A21124B084AFF3133
:101DA00008480FF0EDFE034F69E7C046240100D05C
:101DB00000ED00E0CD010010040E0020C4850110EC
:101DC0008C8601104484011001BD0000EDE5002067
:101DD000AC850110AC86011001BDFFFFAAAA00006E
:101DE0003E0E0020F885011010B5032304009C432B
:101DF000064A9446644422681840C000FC3383407D
:101E00009A43130081400B43236010BD00E400E0BF
:101E100070B5012101432E4BCB1A2F2B28D8EFF39D
:101E20000583002B2BD0EFF3108C72B6294A126871
:101E3000002AFBD0BFF35F8F274A0400244D641BA8
:101E400064416243120D54B2244A92689B00D258F6
:101E50008A421BD00022032A32D853009B189B00D1
:101E60001B49CB189B795BB2A3421FD00132F2E72A
:101E7000C7211B4B1B4A49001B480FF081FE9221D2
:101E80001A4B184AFF3118480FF07AFE134A92682D
:101E90001749D150174B1A7882711C70BFF35F8FAE
:101EA0000C4B00221A608CF3108870BD0D0053009B
:101EB000991889006918FF268E710F4A8A80E9E710
:101EC000D1210E4B074A490007480FF059FEC04682
:101ED000040E0020240100D0AAAA000000ED00E0BA
:101EE00000860110588601104484011028860110D4
:101EF000CD010010EDE5002001BDFFFF348601108B
:101F00000022044B02E0044902C30132072AFAD935
:101F10007047C04600E400E08080808010B5FFF785
:101F2000BBFC01000148FFF737FA10BDF9E50020BE
:101F300000B583B00100064B00930523002205483D
:101F4000FFF701FA002801DB1F23181A03B000BDB8
:101F50003C860110F9E5002070B504000E00150064
:101F6000FFF74AFA0100200000F006F8A680E5809D
:101F7000BFF35F8F70BD0000024B9C466144890037
:101F8000016070474000003410B50400FFF734FAD8
:101F900001002000FFF7F0FFFF232371BFF35F8FE5
:101FA00010BD10B50400FFF727FA01002000FFF76D
:101FB000E3FFFF23237100236371BFF35F8F10BD25
:101FC000034B9C46614489000160BFF35F8F7047FB
:101FD0004000003410B504000120FFF71BFA010097
:101FE0002000FFF7EDFF10BD10B50C00CB68834259
:101FF00007D108000B699847002809D0206861685C
:1020000010BD5221054B064AFF3106480FF0B8FDBE
:102010000023E36000200021F2E7C0462888011079
:10202000C48A01103C88011070B505000C0008003E
:1020300000F028FF0949200000F068FEFFF7DCF9F6
:10204000074B9C466044800068602C75D0231B06BB
:102050001B786B75A400034BE55070BD6D23001019
:102060004000003478D300200A4B1A68EFF3108147
:1020700072B61368002BFCD0BFF35F8F054B1B6853
:10208000BFF35F8F00221A6081F3108840BF0020E9
:102090000021704768E5002010B5002922D00368B0
:1020A0001B7B99421ED8174B9C46614409018368EB
:1020B0009C4661440C684968002A19D003681B7B60
:1020C0009A4215D883680F488446624412019A18D0
:1020D00010685368020001208B4201D80ED0002006
:1020E000C0B210BD084B094A3C2109480FF048FD19
:1020F000054B064A3C2106480FF042FDA242EFD8AC
:10210000EDE7C046FFFFFF0F908801102C8B0110F8
:102110003C88011010B500291ED0037B99421BD8C2
:102120004B005B18033B0468A4466344002919D0A4
:10213000002A1DD0914221D0002A25D0047BA24242
:1021400022D804685000801803382018817019784C
:1021500000291FD11A7010BD104B114A6821114877
:102160000FF00EFD104B114A6F310E480FF008FDB5
:102170000F4B0E4A70210B480FF002FD0D4B0B4A1E
:10218000712108480FF0FCFC044B054A6821054802
:102190000FF0F6FC41701A70DDE7C046B4880110FC
:1021A000988B0110D088011038890110748B0110B0
:1021B000448901105089011070B506000D0014000B
:1021C000002914D0002A14D080687368984700282A
:1021D00006D0220029003000FFF79CFF280007E00E
:1021E0002A0021003000FFF795FF200000E01000DA
:1021F00070BD0800FCE70000F0B583B00500009258
:1022000001930AAB1C780BAB1F78002C26D0036817
:102210005A7B944207D10123002B19D1002C3BD1CA
:10222000200003B0F0BD002C0CD01A7B944209D8DA
:102230001A6863001B19033BD3189B78002BEBD063
:102240000123E9E73E4B3F4A68213F480FF098FCE5
:102250003E4B3F4A67213F480FF092FC03689C7B4E
:10226000002CDBD012D01A7B94420FD862001219D6
:10227000033A19688C46624451789973002900D159
:10228000D9730023937053701370C7E72C4B2D4AFA
:1022900068212D480FF074FC002C3AD02B681B7B72
:1022A0009C4236D82C4BE3181B01AA689446634421
:1022B000009A1A60019A5A60089A9A60099ADA603C
:1022C0002E68002C2BD030D0337B9C422DD863005D
:1022D0001B19033B32689446634400229A705A707B
:1022E0001A70717B22003000FFF766FF7073844222
:1022F00000D095E7287D009A019B00F04FFD061E57
:1023000001D0002F17D00C9B002B00D188E71E7046
:1023100086E7124B124A3C210E480FF031FC114B5C
:10232000114AA52108480FF02BFC054B054A6821EE
:1023300005480FF025FC2868210000F067FFE2E760
:10234000B4880110988B0110D088011068890110A1
:10235000A48B01103C880110FFFFFF0F9088011033
:102360002C8B011038880110888B0110F0B5DE46E7
:1023700057464E464546E0B58BB00990002308937A
:102380008200B54BD658370052E0B44BB44A3F21D7
:10239000B4480FF0F5FBB44BB44A3C21B4480FF0FD
:1023A000EFFB002901D1002869D10021404600F04F
:1023B00023FFA04219D12A686B6806920793AB6885
:1023C0009846EB689A464346002B14D0002C18D050
:1023D0003B681B7B9C4214D8631EFA68D35C08934D
:1023E0001B0218433861002015E0A24BA24A8E213F
:1023F0009F480FF0C5FBA14B9F4A92219C480FF0CC
:10240000BFFB994B9E4A412199480FF0B9FB00232D
:102410009A46984600207B68BFF35F8F00221A60BF
:1024200086F310884346002B32D1002800D10CE1FE
:1024300000F04CFC02000B1EA7DB002000210690E0
:1024400007917868EFF3108672B601680029FCD016
:10245000BFF35F8F396888464C7B002CD7D09AD069
:10246000097B8C4297D8874965182D01B9688C463D
:10247000654428686968801A9941002991DD2A68B5
:102480006B68099800F08AFC00239A469846C2E7D8
:10249000089B1B022343994651461800C04705007C
:1024A0000E007A68EFF3108B72B6136859424B41F5
:1024B000D9B2002BF9D1BFF35F8F002E1EDB002EA7
:1024C00046DD3B69002B47D04B456DD100F0FEFB4C
:1024D00002000B1E6EDB52197341002B70DB002BC8
:1024E00072DB002104910131039102945146019164
:1024F000414600913800FFF77FFE4CE03B69002B1E
:10250000DDD04B4514D1069A079B521BB341002BDB
:1025100014DB002B16DB002104910131039102949E
:1025200051460191414600913800FFF765FE32E0C7
:10253000554B514AA1214E480FF022FB0122524235
:10254000524BE6E7454B464A3F2146480FF018FB01
:10255000002E01D1002DB4D13B68002C50D05A7B05
:10256000944237D1012100294AD1DA7B002A4DD18A
:102570009A7B002A03D1DA7B002A5AD19C73DC7340
:10258000002C5CD03B681B7B9C4258D8FA68013C0D
:10259000135D0133135500233B617A68BFF35F8FEE
:1025A00013608BF3108843E7374B334AA42130483C
:1025B0000FF0E6FA294B2A4A3F212A480FF0E0FAA9
:1025C00001225242314B8AE7244B254A3F212548BC
:1025D0000FF0D6FA002C0DD01A7B94420AD8620074
:1025E0001219033A1868844662449278002ABAD0D5
:1025F0000121B8E7264B274A682127480FF0C0FA87
:10260000264B274AF62124480FF0BAFA002A0AD0AE
:10261000197B8A4207D851008A18033A19688C46F8
:1026200062445470A4E71A4B1A4A68211A480FF002
:10263000A7FA1C4B1A4AFB2117480FF0A1FA0A4BC4
:102640000F4A41210A480FF09BFA0BB0F0BCBB4681
:10265000B246A946A046F0BD78D30020B07C011058
:10266000F88A0110CC7C0110908801102C8B01108D
:102670003C88011090890110108B0110A88901106D
:10268000508B0110FFFFFF0FB4890110FFFFFF7F88
:10269000B4880110988B0110D0880110F0890110C6
:1026A000648B0110148A011010B50C4B5B68002B71
:1026B00004D00A210A48FFF75FFC10BD074C230035
:1026C000084A1021206800F0A7FC032000F0F2FA6D
:1026D00003212000FFF7A8FCEBE7C0464C0E0020CA
:1026E00068E500209920001010B5064B5B68002BB0
:1026F00001D0044810BD044B044A5E2104480FF089
:102700003FFAC0464C0E0020288A0110388B011079
:102710003C880110F0B5DE4657464E464546E0B5CA
:102720008BB0804616001F00149B9A46159B994655
:1027300016AB1B789B461F2302AA944663440022D3
:102740001A702BE0002809D042461268127B904292
:1027500004D8421E4146C9688A5C41E0404B414A68
:10276000412141480FF00CFA07984CE0361BAF416D
:10277000002F07DB002F11DA3C4B3D4A3F213D483B
:102780000FF0FEF9012676423B4FF3E7374B384A0C
:102790003F2138480FF0F4F9002F4FDB43465A68C9
:1027A000EFF3108472B6136859424B41D9B20791C6
:1027B000002BF8D1BFF35F8F1F3302AA9446634406
:1027C00004930023039302934B46019353460093D3
:1027D00032003B004046FFF70FFD031EB2D102005E
:1027E00041464968BFF35F8F00250D6084F3108870
:1027F000002B29D01F2302A98C4663441B78002B91
:10280000B2D112021043002B20D05B46002B1DD00A
:102810004946D04704000D0003000B431DD000299A
:10282000A4DB00F053FA06000F1EAFDB36196F4130
:10283000002FB1DA012676420F4FADE70B4B0C4A61
:102840003F210C480FF09CF9012040420BB0F0BC36
:10285000BB46B246A946A046F0BD0798F6E7C0467B
:1028600090880110508B01103C880110B07C011041
:10287000F88A0110CC7C0110FFFFFF7FF8B504003F
:10288000002900D162E04268EFF3108572B6136848
:1028900058424341D8B2002BF9D1BFF35F8FCBB27E
:1028A0002268567BB3421BD10120002848D0206902
:1028B00088422BD0090AC9B2002B2ED02068007B99
:1028C00083422AD8581EE668305C88422BD000200C
:1028D0006368BFF35F8F00221A6085F31088F8BD2C
:1028E000002B0DD0167BB3420AD85E00F618033ECB
:1028F0001768BC466644B678002ED6D00120D4E7CF
:10290000134B144A682114480FF03AF92C21134B49
:10291000134AFF3113480FF033F9134B134A412187
:1029200010480FF02DF91900100000F06FFC00287E
:10293000CED199210E4B0A4A49000A480FF020F9DE
:1029400023698B42C4D100232361C1E70020C6E77D
:10295000B4880110988B0110D08801104C8A0110A6
:10296000E08A01103C88011090880110508B011002
:10297000708A0110407D7047F0B585B007001000E7
:1029800019000C9E13000B4301D101200021B760F8
:102990000A9B3361306071600B9B7361CA1713002F
:1029A0005040040051400D00A41A9D4100F08EF9E2
:1029B00002000B1E12DB12196B41002B14DB002BE3
:1029C00016DB0121029101960C4900913800FFF7B6
:1029D000A1FEF060C043C00F05B0F0BD084B094A2E
:1029E0003F2109480FF0CCF801225242074BE6E79D
:1029F000034B044A3F2104480FF0C2F8E91F0010BE
:102A0000B07C0110F88A0110CC7C0110FFFFFF7F21
:102A1000F0B587B006000F00EFF30583002B1FD140
:102A200006246442E517A4197D418D4202D803D1E2
:102A3000844201D900240025002D14DB049405955F
:102A400000F044F902000B1E13DBA41A9D41002D77
:102A500017DC14D03000390000F044F907B0F0BDA5
:102A600023480FF027F9234B234A3F2123480FF037
:102A700087F8204B204A3F2120480FF081F8002C96
:102A8000E8D0FFF731FE0023029301931C4B009323
:102A9000049A059BFFF73EFE002818DADAE70023C8
:102AA00000E00023002BD5D1164B1A68EFF31081FC
:102AB00072B61368002BFCD0BFF35F8F114B1B68FD
:102AC000BFF35F8F00221A6081F3108820BF049942
:102AD000059A0D4B5B6A9A42E3D80B48806A88429C
:102AE00003D29A42DBD00123DCE70123DAE7C046B8
:102AF000748A0110B07C0110F88A0110CC7C01109E
:102B00006920001068E500200040054070B5040011
:102B10000D0000F0DBF802000B1E0ADB200029008C
:102B20008018594100290ADB00290CDBFFF770FFF0
:102B300070BD084B084A3F2108480FF021F80120DA
:102B400040420749F0E7034B034A3F2103480FF097
:102B500017F8C046B07C0110F88A0110CC7C011037
:102B6000FFFFFF7F10B5FA2292000023002111F031
:102B70003FFAFFF7CBFF10BD70B584B005000C0025
:102B8000EFF30583002B1ED1FFF7AEFD0023029368
:102B90000193224B00932A002300FFF7BBFD061E82
:102BA00023DD20BFFFF7A0FD3100FFF767FE1C4BC0
:102BB0005B6A9C422DD81A4A926AAA422CD29C4245
:102BC00025D0012026E0164B5B6A994209D8144AA9
:102BD000926A824207D2994201D001201AE0002075
:102BE00018E0002016E0012014E00D4B5B6A9C42C7
:102BF00009D80B4A926AAA4207D29C4201D001200E
:102C000008E0002006E0002004E0012002E00020AF
:102C100000E0002004B070BD0120FBE76920001037
:102C20000040054070B5EFF305801038EFF3108CCD
:102C300072B61A4B1B68002BFBD0BFF35F8F0122CB
:102C40001300834016494B6316490B6016490978F7
:102C50000C00C440224214D0114A546A8200134D21
:102C60005259944206D38200114C125999430E4B8B
:102C7000197007E00A4A031D9B00995899500022D9
:102C800000E00022BFF35F8F044B002119608CF33A
:102C90001088002A00D0904770BDC046280100D09F
:102CA000004005403C700540F8E5002074E5002038
:102CB000941D002010B50100024A0348FEF72AFBCC
:102CC00010BDC046C88B0110E7E50020044B5B6ACD
:102CD000034A906A1900536A9942F9D17047C04675
:102CE00000400540084B5B6A01E0074B5B6A8B4282
:102CF000FBD301E0044B5B6A8B4203D1024B9B6A1E
:102D00008342F7D37047C0460040054070B50400C9
:102D10000D00EFF3108672B61B4B1B68002BFBD027
:102D2000BFF35F8F002D1CD02000FEF729FE174B4C
:102D300083420BD019002000FEF73CFE0121200049
:102D4000FEF70EFE0123A340114A1360A400114BAD
:102D5000E550BFF35F8F0C4B00221A6086F310889A
:102D600070BDA2000B4B0021D1500122A2400A49A4
:102D70000B7893430B7005492000FEF75FFF00219D
:102D80002000FEF7EDFDE4E7280100D0252C00101F
:102D900038600540941D0020F8E50020F0B5DE46BF
:102DA00000B584B00400150001921E000293FFF7E5
:102DB0008DFF03958E4202D84ED185424CD9EFF358
:102DC000108B72B6274B1B68002BFBD0BFF35F8FB5
:102DD000254A17780125A540EBB23B431370234BDE
:102DE0005D63221D92000199D150A20020490298F2
:102DF00050501B6A2B4212D11C4B1B6C2B4208D02B
:102E00000020BFF35F8F174B00221A608BF31088EE
:102E100023E0184B184AC52118480EF0B1FEFFF701
:102E200055FF8E4214D802D1039B834210D80E4B1B
:102E30001B78BB420ED00D4B1D625D631F2004400A
:102E40000123A3400E4A1360074B1F701E38D8E7BA
:102E50000020D6E70120D4E7012004B080BCBB46A7
:102E6000F0BDC046280100D0F8E500200040054034
:102E700074E50020EC8B0110708C0110108C011097
:102E800080E200E0EFF3108C72B60B4B1B68002B56
:102E9000FBD0BFF35F8F01238340084A13620849C8
:102EA0000A789A430A70BFF35F8F034B00221A60BF
:102EB0008CF310887047C046280100D000400540C0
:102EC000F8E5002010B500291ED0037B99421BD8DD
:102ED0004B005B18033B0468A4466344002919D0E7
:102EE000002A1DD0914221D0002A25D0047BA24285
:102EF00022D804685000801803382018817019788F
:102F000000291FD11A7010BD104B114A68211148B9
:102F10000EF036FE104B114A6F310E480EF030FEA7
:102F20000F4B0E4A70210B480EF02AFE0D4B0B4A38
:102F3000712108480EF024FE044B054A682105481B
:102F40000EF01EFE41701A70DDE7C046B488011015
:102F5000948D0110D088011038890110808D0110E6
:102F6000448901105089011070B506000D0014004D
:102F7000002914D0002A14D080687368984700286C
:102F800006D0220029003000FFF79CFF280007E050
:102F90002A0021003000FFF795FF200000E010001C
:102FA00070BD0800FCE7000010B500234373013337
:102FB0008373037BC3730123027B9A4214D9002BD2
:102FC0000CD0027B934209D85A00D218033A016808
:102FD0008C4662440133DBB25370EDE70B4B0C4A75
:102FE00068210C480EF0CCFD002A09D0924207D887
:102FF000016853009A18033A8A180023537010BDD1
:10300000024B034A682103480EF0BAFDB488011050
:10301000948D0110D088011010B501734260836057
:10302000FFF7C2FF10BD000070B50400081E00D1FC
:1030300070BD002934D0237B994231D84B005B18F6
:10304000033B2268944663445A78002AF0D02DD07E
:10305000237B9A422AD853009B18033B21688C4655
:1030600063445D7800215970002825D0237B984265
:1030700022D843001B18033B21688C46634400217F
:10308000597001002000FFF76FFF060029002000A3
:10309000FFF7CAFF020031002000FFF765FFC7E716
:1030A000084B094A682109480EF06AFD054B064A9B
:1030B000682106480EF064FD024B034A682103486C
:1030C0000EF05EFDB4880110948D0110D0880110BF
:1030D00070B505000C00160000292FD034D0037BFA
:1030E000994231D84B005B18033B02689446634415
:1030F0005A78002A2ED19A78002A31D11978FFF710
:1031000093FF0300002E0AD0EA7B002A2ED1AA7B6F
:10311000002A03D1EA7B002A3BD1AC73EC73002B6D
:103120003DD1002C4FD02B7B9C424CD82B686100AA
:103130000C19033C1C190023637070BD254B264AF3
:10314000382126480EF01CFD254B264A68212648CA
:103150000EF016FD254B204A3A2120480EF010FDB6
:10316000234B1D4A3B211D480EF00AFD002A0AD0C0
:10317000297B8A4207D851008A18033A29688C466D
:1031800062445470C3E7164B164A682116480EF085
:10319000F7FC184B104A422110480EF0F1FC002BAE
:1031A0000BD02A7B934208D843001B18033B2A68A4
:1031B0009446634400229A70B3E7094B094A682198
:1031C00009480EF0DDFC064B064A682106480EF061
:1031D000D7FCC0468C8C01106C8D0110948C0110B2
:1031E000B4880110948D0110D0880110E88C011072
:1031F000108D0110148A011070B504000A00457B7F
:103200002900FFF765FF6073280070BD70B50400EA
:10321000002967D0437B8B420ED0002911D0037B5D
:1032200099420ED84B005B18033B0268D018837894
:10323000002B0CD1002056E00121FFF7DDFF01201B
:1032400051E0294B294A682129480EF099FC002BAE
:1032500020D0227B93421DD85A00D318033B22680A
:10326000D2182568EB5C8B421AD0002B1BD0227B36
:10327000934218D85A00D318033B2268D2185378C7
:103280008B4216D0002BF0D11A4B1B4A6B211B48E6
:103290000EF076FC144B154A682115480EF070FCB0
:1032A0004378137007E0104B104A682110480EF065
:1032B00067FC437853700023837043700122200021
:1032C000FFF706FF0200617B814205D02000FFF777
:1032D0004BFE6073012006E0094B074A7121074845
:1032E0000EF04EFC002070BDB4880110948D0110CA
:1032F000D088011034860110548D0110948C011077
:10330000348D0110F0B5C64600B504000E0017005C
:103310001D0037480FF0DAFD8046364BFA18364B61
:103320009A4239D8010038000FF0D0FD0200103A5F
:1033300098235B009A4235D86B1E062B38D8069B23
:10334000013B062B34D83F09474537D32D04069B54
:103350001A0315432368002B36DB284B9C4244D0CC
:1033600080225201264B1A60264B1A60264B9B681E
:1033700011009943FAD12660A060231DC02292015A
:103380001A43212313602368002BFCDAE56008232D
:10339000136080BCB846F0BD1C4B1D4A11211D486E
:1033A0000EF0EEFB1C4B1A4A19211A480EF0E8FBEE
:1033B0001A4B174A1C2117480EF0E2FB184B144A0F
:1033C000232114480EF0DCFB22683F231340B34254
:1033D000C3D1A3681B051B0D8342BED1E368EE2257
:1033E000D2021340AB42B8D1D3E780229201B9E7B1
:1033F000001BB70080E84BD380F8A93200C0024020
:1034000000E0004000F0004000C00040A08D01102E
:10341000E08E0110008E01105C8E0110788E01107C
:10342000C48E011080239B000343014AD36270477E
:1034300000800540024B1A68024B5A607047C04634
:10344000183300200080054010B50200164B802084
:10345000C0051860154B1648186000290AD0154B96
:10346000E021C9041960002A09D1124B80221206FA
:103470001A6010BD0C4BE021C9041960F3E7530139
:103480009B1A9800801800010B4B186080235B0486
:10349000984202D3084B094A1A60FFF7CBFF054B4D
:1034A0008022D2051A60E4E700B005400820014000
:1034B000FCFF010000A0054018330020FFFFFF00C3
:1034C00010B5030010000C4A8024E4051460002BA2
:1034D0000DD001221343094A094CD461094C5C40C8
:1034E0001462516293620021FFF7AEFF10BD034BDF
:1034F0000022DA61F7E7C04600B0054000800540D1
:10350000D3C007B02D3FF84F064BAA2212011A6014
:103510002F22DA60044B054A1A60024B5B68002BCD
:10352000FBDA7047004002400060024000B0FA0041
:1035300010B501F0C3FC00F0C5FB00F0B1FD00F0D8
:1035400055FE05F03FFE01F079FD00F018FA05F098
:1035500051FD10BD0302000A184380B270470306F4
:103560000202FF2109040A401343020AFF21090253
:103570000A401343000E18437047000000280AD089
:10358000C07A002809D1431C9B00054A9B58002B98
:1035900004D0012002E0002000E000207047C04677
:1035A000882A002010B5FDF737FE80B2002301E025
:1035B0000133DBB2032B0FD81A01D21812010749CD
:1035C0008A18927A022AF3D11A01D21812018A18A3
:1035D00012898242ECD1E6E710BDC046902A002055
:1035E000F0B5D6464F464646C0B50600884600248C
:1035F00001E00134E4B2032C23D8250063001B1939
:103600009B00314A9F58002FF3D063001B199B0089
:10361000D3181B7AB342ECD130018019000110306D
:103620002A4BC0189246630099461B199B005344CD
:103630005A684146B8474D44AD0000235246AB504E
:10364000D7E7002301E00133DBB2032B1BD8B342E1
:10365000F9D01A01D21812011C498A18927A022A4A
:10366000F1D11A01D21812018A18D07B32019219B5
:1036700012018A18D27B9042E5D133019B191B01BC
:10368000CB180422DA7333019B191B010F4AD3189C
:10369000DB7B032B04D9E0BCBA46B146A846F0BD9B
:1036A0000B4C9B00185906F08BF8084A300183191F
:1036B0001B01D318DB7B9B000021195180190001ED
:1036C00010180423C373E6E7582A0020902A00202C
:1036D000482A0020F0B5D6464F464646C0B584B0CD
:1036E0008046030143441B01534AD318DB7A012B64
:1036F00034D89B00514A9B58002B32D004014444DB
:10370000240110344C4BE418200013F001FFA022D8
:10371000123081B29200362000F0FCFF8146002872
:1037200000D185E001AD0C220021280010F030FD11
:1037300043461B0143441B013F4AD3181889FFF736
:1037400009FF28800123AB70FF33AB800C222900D6
:10375000484601F043FA661E0C2737E038480EF061
:10376000A9FA0021FFF73CFF434618014044070136
:10377000314BDF190023BB720024200004B0E0BCF1
:10378000BA46B146A846F0BD0134E4B201363378FA
:103790002E2B01D0002BF7D1731B9BB29A463B19FD
:1037A000284A934216DC22003900484601F0D1FA3B
:1037B0007B1C9BB252462900484601F05BFA3C193B
:1037C000A5B26F1CBFB23378002B09D0013635008B
:1037D0000024DCE7484600F05FFF06246442CCE7A3
:1037E00000223900484601F0B4FA0235ABB280221B
:1037F000520069460A804A80FC3A484601F03AFA8B
:103800000D4943461B0142469A1812018A18D07B83
:10381000D37A9B00094AD21880000B4940583523BF
:10382000494605F045FF0400484600F035FFA4E78F
:1038300001246442A1E7C046902A0020882A002083
:10384000EC8E0110FEFF0000482A002070B5040035
:10385000000100190001414BC018032C20D823019E
:103860001B191B013D4AD3189B7A022B34D01AD85E
:10387000002B14D0012B00D06CE0FFF793FE3749EA
:10388000220113191B01CB18188102209872002005
:10389000D87201251D7358732000FFF71BFF70BD00
:1038A0002F480EF007FA032B54D123011B191B01DB
:1038B0002A4A9B58002B07D0013B22011219120102
:1038C00026495350002BEAD1200104192401234832
:1038D00004190023A372E2E723011B191B011F4AED
:1038E000D218137B013BDBB21373002BD7D123011A
:1038F0001B191B01194AD218537B0133DBB25373D6
:10390000042B09D022011219120114498A181373C9
:103910002000FFF7DFFEC2E7FFF730FE00280DD0E2
:103920000E49220113191B01CB18D87A0130D87225
:10393000012018731A0000235373E9E700212000C7
:10394000FFF74EFE200104192401044B1C1900232B
:10395000A372A4E703480EF0ADF9C046902A0020F8
:10396000048F0110208F011010B5002404E0200006
:10397000FFF76CFF0134E4B2032CF8D910BD704797
:10398000012800D97047002904D080000A68044B40
:10399000C250F7E78000034B1A68014BC250F1E7B1
:1039A000882A002048B6011010B5FFF7DDFF10BDD2
:1039B00030B583B06B460022DA8001231D0005403C
:1039C000184206D0002904DD02786B46DA7101390D
:1039D0000130032213000340104209D0012903DD06
:1039E00003880239023003E0002301E00839200097
:1039F00007290CDD0268D218934200D90132040075
:103A0000083443689B189A42F0D90133EEE71A0C48
:103A10001B041B0CD31803E002889B1802390230E8
:103A20000129F9DC002902DD01786A4691716A46B4
:103A300006321288D318180C1B041B0CC318180C60
:103A40001B041B0CC018002D05D003061B0C020A1A
:103A5000FF201040184380B203B030BDF0B583B0F2
:103A60000600019115001C00002700E03668002EBA
:103A700015D071897068FFF79BFF0019040C0004D2
:103A8000000C24187389DB07F0D57B425F41FFB23D
:103A90002206120C230AFF241C401443E6E7002FE1
:103AA00005D02206120C230AFF241C4014436B4647
:103AB0009888FFF74FFD24182800FFF74BFD2018CA
:103AC000030C0004000C1818030C0004000C181858
:103AD000C04380B203B0F0BD70B51C6825042D0C46
:103AE000230C5B19049C246825042D0CED18230C71
:103AF0005B191C0C1B041B0CE3181C0C1B041B0C7B
:103B0000E318FFF7ABFF70BD10B582B0049C0094C2
:103B1000FFF7E2FF02B010BD10B5FFF749FFC04349
:103B200080B210BD70B505000026002400E02D68AD
:103B3000002D15D069896868FFF73AFF0019040C59
:103B40000004000C24186B89DB07F0D573425E413A
:103B5000F6B223061B0C240AFF2004401C43E6E7B0
:103B6000002E05D023061B0C240AFF2004401C4312
:103B7000E04380B270BD0000014B1B68181870470D
:103B800088D30020024B1B68C01A80B27047C04621
:103B900088D30020F8B50400FFF7F4FF050027885C
:103BA0003800FFF7E9FF060064882000FFF7E4FF14
:103BB000FA231B019F420FD89C420FD8AC4202D07F
:103BC0000388AB420CD1094B1B68B3420AD07388FF
:103BD000AB4209D1012000E00020F8BD0020FCE745
:103BE0000020FAE70120F8E70020F6E78CD3002058
:103BF00070B504002C4B1B68834242D82B4B1D68C8
:103C0000854241D90379002B41D10088FA231B0159
:103C100098423FD8FFF7B0FF844216D00379002BBB
:103C200013D1854211D0224B1B68834235D00388C3
:103C300023800088FA231B01984206D0FFF79CFFDF
:103C400005002000FFF79EFF68806088FFF794FF63
:103C50000500844214D00379002B11D1144B1B684A
:103C6000A3421DD023882B802088FA231B01984271
:103C700006D0FFF781FF04002800FFF783FF608074
:103C800070BD0C480EF016F80B480EF013F80B48F8
:103C90000EF010F80A480EF00DF8054B1C60C6E750
:103CA000034B1860DEE7C04688D300208CD3002089
:103CB00014330020408F0110588F0110748F0110B1
:103CC000908F011070B50C4C033403239C430B4BB5
:103CD0001C60FA252D0125800023638023712800B4
:103CE000FFF74AFF064B18600123037105804580EA
:103CF000044B1C6070BDC04690D3002088D30020C8
:103D00008CD300201433002070B5041E23D0830709
:103D100022D10500083D164B1B68AB421FD803009B
:103D20000C33144A1268934219D80300083B1B79DC
:103D3000002B17D02800FFF72DFF002815D0083CD6
:103D4000002323710C4B1B68AB4201D90A4B1D6049
:103D50002800FFF74DFF70BD08480DF0ABFF084885
:103D60000DF0A8FF07480DF0A5FF07480DF0A2FFD2
:103D700088D300208CD3002014330020BC8F011086
:103D8000E08F0110FC8F011024900110F0B5C646A1
:103D900000B50500CC1CA4B203239C430B2C05D911
:103DA000FA231B019C4202D900253FE00C248C42DF
:103DB00000D277E03C4B1B68AB423BD83B4B1B68C7
:103DC000AB4237D92F00083F3800FFF7DBFE060073
:103DD0003F883B1A9BB2083B9BB298469C422CD82A
:103DE00024D03800FFF7C8FE0379002B31D1FA2325
:103DF0001B019F4224D00788A419A4B20834A4B29E
:103E00002B4B1B6883421ED02000FFF7B5FE00231A
:103E10000371078046802B00083B1C800088FA2332
:103E20001B01984202D0FFF7A7FE4480280080BC07
:103E3000B846F0BD1F480DF03DFF1F480DF03AFF9A
:103E40001E480DF037FF2000FFF796FE184B186054
:103E5000DAE7230014334345E8D8A419A4B20834A0
:103E6000A4B2FA231B019F4219D02000FFF784FE61
:103E70000F4B1B68834201D90D4B1860002303715F
:103E80002B00083B1A88028046801C800088FA2399
:103E90001B019842CAD0FFF76FFE4480C6E707486F
:103EA0000DF008FF0025C1E788D300208CD3002047
:103EB0001433002058900110709001109090011060
:103EC000F0B5CE4600B582B0002800D182E0C51C16
:103ED000ADB2032295430B2D05D9FA231B019D4258
:103EE00002D9002072E00C25854200D274E03B4BE1
:103EF0001B6899461800FFF745FE070032E0384876
:103F00000DF0D8FE01230371A14510D0019BE518E7
:103F10000835344B1B689D421DD8A3071ED12000D5
:103F2000083053E04B461888FFF726FE81464B4683
:103F30001B79002B03D02B4A12684A45F2D1274A3D
:103F400049461160274A12684A45DFD0002BDDD070
:103F500025480DF0AFFE25480DF0ACFE24480DF0CD
:103F6000A9FE27883E000195FA231B015B1B9F4297
:103F70002BD23800FFF700FE04000379002BF0D1AC
:103F800003889E1B083E019B9E42EAD314339E4247
:103F9000B8D37E19B6B20836B6B2FA231B019E42D8
:103FA000ADD03000FFF7E8FD0023037123880380C4
:103FB00047802680012323710088FA231B01984241
:103FC000A2D0FFF7D9FD46809EE7002002B080BC5A
:103FD000B946F0BD0020F9E70020F7E714330020D0
:103FE000909001108CD30020A4900110C09001107B
:103FF000F090011070B541430C0088B20B041B0C0B
:10400000994208D1FFF75CFF051E05D02200002170
:1040100010F0BEF800E00025280070BD10B50400C7
:10402000FCF75AFDE3681C68002C0AD022681A606D
:10403000A30703D1FCF752FD200010BD02480DF08C
:1040400039FEFCF74BFDF7E72091011070B5050034
:104050000C008B0709D1FCF73FFDEB681B68236060
:10406000EB681C60FCF73AFD70BD01480DF022FEC4
:1040700044910110C36800221A608368033303323D
:104080009343002207E0C16809681960C1680B60AA
:1040900081885B180132C1889142F4DC70470000CE
:1040A00010B5002406E0A200044BD058FFF7E2FF51
:1040B0000134A4B2082CF6D910BDC0469492011068
:1040C00010B5082805D88000044BC058FFF7A6FF9C
:1040D00010BD034810F0BAF90020F9E794920110DE
:1040E0006491011010B5082807D8002904D0800079
:1040F000044BC058FFF7AAFF10BD034810F0A6F903
:10410000FAE7C04694920110849101100B6882680E
:10411000934206D0002902D083600120704700231B
:10412000FAE70020FAE70B68C268934206D000293C
:1041300002D0C360012070470023FAE70020FAE7AD
:104140000C204042704770B504000D0001F006FBE2
:104150002900200005F064FB2900200000F092FEF9
:1041600070BD000010B500280DD03923C25C343B6F
:104170001340052B06D1CB0704D54368002B01D093
:10418000130703D410BD03480DF094FD011D06F084
:104190002FFFF7E7B892011030B583B005000C008F
:1041A0001000002908D0002A09D06B680A689A42DA
:1041B00008D1002003B030BD0B480DF07BFD0A484C
:1041C0000DF078FD0192036001A9FFF7BCFF2368A1
:1041D0006B6001212800FFF7C5FFEB69002B01D0C0
:1041E000280098470120E5E7DC92011070470000A5
:1041F000F0B5C64600B582B005000C0017001E00E1
:10420000002920D0002F20D0002E20D0002C02D05A
:104210002368002B1DD101AA21002800FFF7BCFF55
:1042200001239846002239002800FFF76FFF002283
:1042300031002800FFF777FF4346002B0CD002B077
:1042400080BCB846F0BD074CDCE7064FDCE7054E06
:10425000DCE700239846E5E701AA21002800FFF7E4
:104260009BFFECE748B60110F0B5C64600B5040068
:104270000E0017009846002832D0079B002B34D040
:10428000002937D0002F37D04346002B36D00025E9
:104290006560A560E560354B6361258600223923A2
:1042A000E25420002830042200210FF071FFE56164
:1042B0002562069B63622E4B1A783C23E254089BCE
:1042C000236143463A0031002000FFF791FF2000B0
:1042D000079B9847002823D0002080BCB846F0BD3B
:1042E000244810F0B3F82000F7E7234810F0AEF8A8
:1042F0000020F2E7214EC5E7204FC5E71F4B984647
:10430000C5E7C33B0022E2540EE01D480DF0D2FC8D
:104310001C480DF0CFFC01313C22A154002B15D0DC
:104320003C23E35CFF2BECD0174B1D682B000022D5
:10433000002BF3D09C42E8D00132FF2AE8DC3C217C
:10434000585C615C8842E6D01B68F1E73C33E35C73
:10435000FE2B07D00133064A137025600A4B1C6000
:104360002000BAE7024B00221A70F6E74141001024
:10437000F0E50020EC9201100893011048B60110FE
:104380002C9301104093011064D30020014B18605E
:104390007047C04660D3002010B5041E10D03923EA
:1043A000C35CDA070BD40122134339228354C36957
:1043B000002B00D0984703212000FFF7D3FE10BD4B
:1043C000014810F043F8FAE77093011010B5041E8D
:1043D0000FD03923C35CDA070AD501229343383260
:1043E00083541B0709D4E369002B01D020009847B0
:1043F00010BD034810F02AF8FAE706F04BFDF2E78B
:104400008C93011010B5041E28D04368002B12D1E4
:104410003923E35CDB0713D4114B1B68A34213D091
:10442000104B1B68A34213D0002B17D01A68A2426E
:1044300012D01300F8E704300021FFF784FEE7E70D
:104440002000FFF7C3FFE7E70020FFF79FFFE7E744
:104450002268044B1A6001E022681A6010BDC04651
:1044600060D3002064D3002010B5041E04D039238B
:10447000C35C5A0704D510BD09480FF0E7FFFAE7FF
:10448000042213433922835406F00EF9032120003D
:10449000FFF768FE236A002BEDD020009847EAE77B
:1044A000AC93011010B500280CD03923C35C5A0717
:1044B00007D50422934335328354036A002B00D07E
:1044C000984710BD01480FF0C1FFFAE7D0930110E3
:1044D000021E0BD0064B1868002808D03C23C35C92
:1044E0000133DBB2934202D00068F5E70020704749
:1044F00064D3002030B504AC25780024046041600A
:104500000281438103AB1B780373457301238373DB
:10451000C47330BD02E0C91A89B20068002802D015
:1045200043898B42F7D9002A00D0118070470000E0
:1045300010B5FCF7D1FA034B01221A70FCF7CEFA42
:1045400010BDC046F2E5002070B500281AD08023C7
:104550005B02994221D2002921D08CB203891B1918
:104560009BB2A3421DD30C254557002D0DDB002A1D
:1045700019D04268511A416042891419448103815B
:1045800000200BE009480DF095FB4268511A02002B
:1045900010328A42EFD9012000E0012070BD0020D6
:1045A000FCE70120FAE70120F8E7C04680AF0110E0
:1045B00010B5FCF791FA084B00221A70FCF78EFA3E
:1045C000064B186800E0C068002804D0436F002B39
:1045D000F9D000F04FFF10BDF2E5002084E5002087
:1045E000F0B583B007000E001500412A01D0012A62
:1045F0000FD10720FFF764FD041E07D000230193AD
:104600000095330032003900FFF774FF200003B03B
:10461000F0BD01480DF04EFBF493011010B50022DF
:10462000FFF792FF10BD000010B5002814D08023C2
:104630005B02994218D2002918D08AB2438993426A
:104640000DD34468A446614441609B1A43810389A9
:104650009A1A0281002010BD05480DF02BFB054879
:104660000FF0F4FE0120F6E70120F4E70020F2E766
:1046700080AF01100894011010B5002902DBFFF78C
:1046800063FF10BD4942FFF7CFFFFAE710B50122E3
:10469000FFF7F2FF10BD000070B5051E01D0002627
:1046A0000CE019480DF006FB18480DF003FB29003B
:1046B0000820FFF717FD0136F6B22500002D21D0A6
:1046C000FCF70AFAAC7B002CEED0013CE4B2AC73F0
:1046D000FCF704FA002C15D12C682A7B0F23134019
:1046E000022BE4D0012B05D0002B08D12800FFF7C6
:1046F0000BFBE0E729000720FFF7F4FCDBE70448A9
:104700000DF0D8FA300070BD80AF01102894011070
:1047100040940110F0B5D6464F464646C0B582B02B
:1047200005000F00904684B2C1235B009A4241D03D
:1047300011D8012A02D0412A00D07DE0424639003A
:104740000020FFF74DFF8146484602B0E0BCBA4664
:10475000B146A846F0BDA0239B009A426CD1E31C51
:1047600003218B439BB2FA1C94B28C431B199BB25E
:104770001800103080B28A43934260D3824261D8DD
:10478000FFF79EFB81460028DED029001031494406
:1047900003310324A14300230193434600933B00CC
:1047A0003A00FFF7A7FE4B465B682342CCD0274870
:1047B0000DF080FA00250023994626E0FFF7B8FEA9
:1047C0004B46002B02D04846FFF766FFA946BBE7E1
:1047D000B6B221001031691803310324A14300232C
:1047E00001934346009333003A002800FFF782FE0E
:1047F0006B6823421BD14B46002B1BD053461D60D8
:10480000BF1BBFB20024002F9ED0AA460820FFF78E
:1048100057FC051ED2D0E31C032293439AB20C4BE3
:104820009B1A9BB21E1CBB42D2D93E1CD0E7094842
:104830000DF040FAA946E3E707480DF03BFA0023E4
:10484000994681E7002399467EE7C046B894011057
:10485000EC05000054940110E494011070B5041E9E
:1048600012D00089884220D90D006389AB420ED254
:10487000ED1AADB223890A1A9B1823812468002CF3
:10488000F3D113480DF016FA12480DF013FA227BFB
:10489000120701D1AB4209D165812581206800282A
:1048A00001D0FFF7F9FE0023236070BD6368191B78
:1048B000691889B22000FFF769FA002804D0844201
:1048C000EAD005480DF0F6F904480DF0F3F9C046BA
:1048D00018950110009501104C95011030950110AC
:1048E0000300002002E0013080B21B68002BFAD1E7
:1048F0007047000010B5041E09D0FCF7EDF8A37B4B
:104900000133A373FCF7EAF8A37B002B00D010BDA2
:1049100001480DF0CFF9C0466895011010B5002888
:1049200001D0002908D10C480FF090FD0FE0038959
:104930000C891B19038110000268002AF7D1038932
:104940004289934204D10A899B180381016010BDFA
:1049500002480DF0AFF9C0467C950110B4950110E6
:1049600010B50C00FFF7DAFF2000FFF7C3FF10BD02
:10497000F8B5CE46474680B506000D1E91469846CE
:104980000AD00A894A4507D300280BD002894B4434
:104990009A4207DB002726E03D480FF057FD102024
:1049A000404270E03B480FF051FD102040426AE069
:1049B00039480DF07FF939480DF07CF94B46002B52
:1049C00036D10027424539D0002D03D06A892B8982
:1049D0009A4245D0002E03D0728933899A4248D03A
:1049E0004B46002B4ED0738942469B1A6A89D21BD4
:1049F000934200D313004C46994500D91C007068BF
:104A000040446B68D91922000FF0C8FBA0443F193D
:104A10004B461C1BA3B2994672894245C8D36B8989
:104A2000BB42C8D3CED82D68002DC7D00027C9E718
:104A30001B480FF00BFD1020404224E03668002E8A
:104A400002D000239846BFE74B46002B02D100233B
:104A50009846B9E713480FF0F9FC1020404212E0E5
:104A60002B68002BB6D010480FF0F0FC0620404217
:104A700009E03368002BB3D00B480FF0E7FC0620A9
:104A8000404200E00020C0BCB946B046F8BDC04678
:104A9000E4950110189601104896011060960110D7
:104AA0007C9601108C9601109C96011010B500297F
:104AB00004D00A890023FFF75BFF10BD02480FF006
:104AC000C5FC10204042F8E7D4960110F8B5CE4658
:104AD000474680B50500884691461900002805D054
:104AE0004346002B0BD00027002625E019480FF085
:104AF000ADFC00273800C0BCB946B046F8BD16482A
:104B00000FF0A4FC0027F5E76C89641AA4B2A14554
:104B100000D24C46434698196B689C46614422007B
:104B20000FF03CFBE719BFB23619B6B24B461C1B5F
:104B3000A3B2994600212D684B46002BDAD0002DF8
:104B4000D8D00029E0D06B898B42DDD8C91A89B250
:104B5000F1E7C046F09601101097011070B582B0D1
:104B600004000E001D0006AB1988002814D0002E8A
:104B700017D095421AD86B469A1DFFF7CBFC002838
:104B800008D041896B4606331B885A19914212DBC3
:104B90004068C01802B070BD0C480FF057FC2000F0
:104BA000F8E70B480FF052FC3000F3E708480FF02D
:104BB0004DFC0020EEE72A003100FFF787FFA842F6
:104BC00001D13000E6E70020E4E7C0463497011049
:104BD0005897011010B5FFF79DFC10BDF8B5CE46F3
:104BE000474680B50500884616009146002806D045
:104BF00000290AD0038993420DD300271DE01848ED
:104C00000FF024FC1020404223E016480FF01EFC59
:104C1000102040421DE014480FF018FC01204042D3
:104C200017E012480DF046F84346D919220068688B
:104C30000FF0B4FA361B3F192D68002E06D0002D58
:104C4000EFD06C89B442EFD33400EDE74F4504D187
:104C50000020C0BCB946B046F8BD05480DF02AF8A2
:104C60008097011098970110B4970110D497011004
:104C7000EC970110F0B583B00F00140019006B46DB
:104C80009A1DFFF7A7FF061E24D002896B46D8881D
:104C900003199A4221DB7389984212D21A1A94425C
:104CA00012DD95B273689C4660442A0039000FF00B
:104CB00075FA621B92B27919002A07D1002003B05D
:104CC000F0BD07480CF0F6FF2500EBE73068FFF772
:104CD00085FFF4E701204042F1E701204042EEE782
:104CE0000498011070B50B00150011891A00FFF728
:104CF00011FD041E04D02900FFF7D8FE002801D1C1
:104D0000200070BD01480CF0D5FFC0461C98011072
:104D100000B583B06B469A1DFFF7FCFB002809D055
:104D200042896B4606331B889A4206D94268D05C9A
:104D300003B000BD01204042FAE701204042F7E7FE
:104D400010B5FFF7E5FF002801DA002010BDC0B262
:104D5000FCE710B582B014006B469A1DFFF73AFFCE
:104D6000002807D042896B4606331B889A4201D936
:104D70004268D45402B010BD10B5027A002A07D0A0
:104D8000134B5C683C23E35C0133DBB29A4213D1E2
:104D9000002906D0002811D00368002B10D0002075
:104DA0000BE000280ED00368002B0DD0084A526992
:104DB00093420BD0080000E0002010BD0120FCE76A
:104DC0000120FAE70120F8E70120F6E70120F4E7E7
:104DD000FC320020F0B5D6464F4680B583B00500C2
:104DE000244B1968586907F0D8FB07006B685E7A96
:104DF000214B1C6800239946019313E063699A468E
:104E0000002B0DD06B6899461C4B2A002100A0692D
:104E1000D04700281AD16B684B4528D10223994608
:104E20000194E468002C1CD0237C9E42F8D1390008
:104E30002000FFF7A1FF0028F2D0637CDB07DDD55F
:104E40000C4B1B6962689A42EAD1D7E7019B002BA1
:104E500005D0E268DA60084B1A68E2601C60012342
:104E60009946484603B0C0BCBA46B146F0BD0448B6
:104E70000CF020FFFC3200204CE300200C3300201B
:104E80003098011010B5002814D00368002B11D001
:104E900000290FD00B68002B0CD0074B1B6800E0DB
:104EA000DB68002B06D01A680468A242F8D10A68B1
:104EB0001A60F5E710BDC0464CE3002070470000C3
:104EC00010B5002409E0154B154A1A800DE0013495
:104ED000A4B28023DB019C421DD2104A1388013307
:104EE0009BB213800F4A9342EDD0002003280FD8C5
:104EF00083000D4A9B581B68002B06D0D98A074AAD
:104F000012889142E3D0DB68F6E70130C0B2EDE7EA
:104F1000024B188810BD0020FCE7C046780E002028
:104F200000C0FFFFFFFF0000D89E011010B5002950
:104F300003D106480CF0BEFEC068002805D0C36F40
:104F40008B42F9D10023C367F6E710BD7C980110AE
:104F500070B5051E04D0037D012B04D101240DE0A2
:104F600008480CF0A7FE08480CF0A4FEA200074B6E
:104F7000D35818682900FFF7D9FF0134032CF5D95D
:104F800070BDC046A4980110B0980110D89E0110C1
:104F900010B50100037D012B03D00320FFF7A2F819
:104FA00010BD01480CF086FEC898011070B5041EB3
:104FB00009D0037D042B19D0072B1ED0032B05D05D
:104FC0000025280070BD12480CF074FE03F090FB21
:104FD000051E01D105232375002D15D06B1CF0D1C2
:104FE000638B0822134363830025EAE703F080FB09
:104FF000051EF1D105232375EEE703F079FB051EAD
:10500000EAD109232375E7E7200003F0E9FCD8E79C
:10501000A498011010B5084B186800E02000002883
:1050200009D0C468438B1A07F8D5082293434383F9
:10503000FFF7BCFFF2E710BD84E5002010B5FCF7D8
:10504000EBF88004800C034B9C466044024B1880B4
:1050500010BDC04600C0FFFF780E002010B5010053
:10506000037D012B03D00220FFF73CF810BD01485F
:105070000CF020FEE498011070B506000D1E0ED055
:10508000002E0ED0337D002B11D1002A15D0002028
:10509000032816DC830025495B581B6821E0244D5A
:1050A000EEE724480FF0D2F91020404217E02248E2
:1050B0000FF0CCF90620404211E0FFF701FF021E7D
:1050C00025D0002D03D02B68002B00D03360F28256
:1050D0001A4B1A68F2601E6003F04EFF002070BD8C
:1050E000DB68002B11D0DC8A9442F9D1002B11D05F
:1050F0001968002911D0002D12D02C68002C12D074
:10510000A142EDD108204042E9E70130C0E702208A
:105110004042E4E708204042E1E708204042DEE761
:1051200008204042DBE708204042D8E7D89E011023
:1051300048B60110F89801101099011088E5002078
:10514000F8B5002816D0456A068DA919C26A448EA2
:10515000231C0E4FBC4200D93B1C9BB2D318CB1A68
:105160000BD5521B0CD480235B029A420BD2428592
:105170000020F8BD06480CF09DFD4685881AF8E72A
:1051800000234385F4E703480CF094FDD01600009B
:10519000389901105C99011010B5041E13D0037DDD
:1051A000012B14D0038D591889B20F4A914201D8AE
:1051B0008B420FD90C4B23852000FFF7C1FF0B4B0F
:1051C000984209D810BD0A480FF040F9FAE709489B
:1051D0000CF070FD0185EFE7638B022213436383BC
:1051E000200003F0FDFBEDE7A02D0000670B0000A1
:1051F000789901109099011010B5041E08D04068EC
:10520000002801D0FFF748FA21000420FEF76AFFCA
:1052100010BD10B503E00468FFF7EEFF2000002882
:10522000F9D110BD70B5051E0DD00420FEF748FF62
:10523000041E06D0142229000EF0B0FF6068FFF7AC
:1052400059FB200070BD01480CF034FDB8990110E5
:10525000002800D00161704710B5002804D0037DFC
:10526000012B02D08423C15010BD01480CF022FD57
:10527000D499011010B5002804D0037D012B02D071
:105280008023C15010BD01480CF014FDFC990110A1
:1052900010B5002804D0037D012B02D09023C1500B
:1052A00010BD01480CF006FD249A011010B500282D
:1052B00006D0037D012B07D08C23C150427710BD4F
:1052C00003480FF0C3F8FAE702480CF0F3FCC046BD
:1052D0004C9A0110649A011010B5002807D0054BB4
:1052E000054A10681A6894466044186010BD034867
:1052F0000CF0E0FC740E002094E50020849A01106C
:1053000010B5002A0ED000290BD00B8E002B08D030
:10531000282B0AD9283B9BB21A1C834200D9021CB5
:1053200090B210BD02480CF0C5FC0023F4E7C04663
:10533000A09A0110F8B504001E00002855D00029DD
:1053400059D0037D002B5CD10B6843600283007A47
:1053500000285CD0FFF7BCF80500002D00D171E0FB
:10536000002C02D02368002B04D12B1D00D16CE04F
:105370006B682360E78A002F04D1FFF7A1FDE0826C
:10538000002865D02000FFF7A7FF0200002161621E
:105390002065013A6264A265E2652F4B638523852F
:1053A000E1626022A352862080006086221D2900CF
:1053B000FFF7A6FF608648230122E2524033E65001
:1053C0000221200003F006F9051E39D102232375BE
:1053D000002F29D0214B1B68A3421DD0002B21D0C8
:1053E000DA68A2421CD01300F8E71D480FF02EF82F
:1053F00010256D4224E01B480FF028F810256D425F
:105400001EE019480FF022F80A256D4218E0201D11
:1054100006F03CFE0500A0E7DA68104B1A6001E0D8
:10542000E268DA600023E360104B1A68E2601C60F7
:1054300003F0A2FD0E4B01221A70200003F0D0FAF7
:105440002800F8BD04256D42FAE704256D42F7E710
:1054500002256D42F4E7C046A02D000088E500203B
:10546000C89A0110E49A0110009B011084E5002005
:10547000F5E5002010B50400406F002803D0FFF7C9
:10548000C8FE0023636710BD10B5041E22D0037D43
:10549000002B1ED00A2B1CD0012B1AD0806F0028A5
:1054A00003D0FFF7F9F80023A367636F002B02D046
:1054B0002000FFF7DFFF01235B422386E06EFFF74A
:1054C000A8FE206FFFF7A5FE0023E366236768228E
:1054D000A35210BD01480EF0B9FFFAE7309B01104E
:1054E00010B50C1E0BD000280CD003688B420CD0DA
:1054F000002B0FD0DA68A2420AD01300F8E71C484C
:105500000CF0D8FB1B480CF0D5FBDB68036001E016
:10551000E268DA600023E3602000FFF7B5FF237D37
:105520000A2B04D0012B02D0638BDA070FD4237D22
:10553000012B08D0E36E002B10D1236F002B10D16C
:10554000636F002B10D100232375E38210BD02226C
:1055500013436383200003F043FAE8E706480CF0A6
:10556000A9FB06480CF0A6FB05480CF0A3FBC046BF
:105570004C9B0110689B0110889B0110A09B01109F
:10558000BC9B0110F0B5D6464F464646C0B584B028
:1055900004000D0000281CD0037D012B1DD00A2B18
:1055A0001ED0026D9046426A914690228658076945
:1055B000002B47D1C38A9A46002B4DD02E4B1B6837
:1055C000834215D0002B19D0DA68A24214D0130000
:1055D000F8E72A480EF03AFF2EE029480CF06AFB63
:1055E00001002848FFF77CFF2000FFF737FD23E08C
:1055F000DA68214B1A6001E0E268DA600023E360B8
:105600009A460025206F002801D0FFF702FEE06EC9
:10561000002801D0FFF7FDFD606F002801D0FFF7E3
:10562000F8FD002D1AD12000FFF718FD002E03D041
:105630000D2149423800B04704B0E0BCBA46B1463B
:10564000A846F0BDC38A9A4601000F48FFF748FFFD
:105650000E4B01221A70D5E70025D3E7231D228BBC
:10566000029252460192009323004A46414620008E
:1056700003F04EF9D7E7C04688E50020D49B01101F
:10568000F09B011098E5002084E50020F5E500205E
:1056900010B50121FFF776FF10BD000010B50B4BD0
:1056A0001B680021002000E0DB68002B08D0084ABE
:1056B00012681C6A121B8A42F6D311001800F3E725
:1056C000002801D0FFF7E4FF10BDC04698E5002098
:1056D00094E5002070B543B2002B02DB002801D115
:1056E0001FE07F200138C2B20E4B1B68002400204F
:1056F00006E00D4A14681A6AA41A0A001800DB684A
:10570000002B0AD0597D9142F3D3F8D1064D2D6874
:105710001E6AAD1BA542F2D3EBE7002801D0FFF7CC
:10572000B7FF70BD84E5002094E5002070B504004B
:105730000800002C06D108480CF0BCFAC568FFF739
:10574000A7FF2800002805D0036822689342F5D0FF
:10575000C068F7E770BDC046249C011070B5040016
:105760000D00002802D00368002B00D170BD0D4B46
:105770001968FFF7DBFF0C4B19682000FFF7D6FF15
:10578000002DF3D02B68002BF0D0084B1B6800E0F5
:10579000DB68002BEAD01A6821688A42F8D12A68AF
:1057A0001A60F5E784E5002088E5002090E50020F8
:1057B00070B501000300083BDBB2012B04D80E4B8F
:1057C0001B680024002003E00C480CF073FADB682F
:1057D000002B0BD01A7D8A42F9D1094A12681D6A42
:1057E000521BA242F3D314001800F0E7002802D0A5
:1057F0000021FFF7C7FE70BD84E50020589C011012
:1058000094E5002070B505000220FEF759FC041E47
:1058100030D0002C2CD0A422002120000EF0B8FCA7
:105820006575254B6422A352638523859B32E27202
:105830001A32FF326286062240216252E287073A1C
:10584000228649323F39A1521C4A126822621C4A00
:105850001278A2774A22A35284231A4AE2501033C4
:10586000194AE2500433194AE25004330922E25043
:10587000200070BDFFF7CEFBFFF710FF0220FEF700
:105880001FFC041EC5D10920FFF792FF0220FEF77E
:1058900017FC041EBDD10820FFF78AFF0220FEF787
:1058A0000FFC041EB5D12800FFF714FF0220FEF7FD
:1058B00007FC0400ADE7C046A02D000094E50020E1
:1058C000F7E50020455A001000DD6D00F8240100C6
:1058D00010B54020FFF796FF10BD000010B584B052
:1058E000041E13D0002904D0037D042B11D0072BF4
:1058F0000FD0237D012B00D166E0022B00D16FE099
:10590000002B46D02000FFF751FB3DE03A480CF059
:10591000D1F9A36F002B1CD0638BDB061ED5231D92
:10592000228B0292E28A019200932300626A216D27
:10593000200002F0EDFF2000FFF7A6FD2F4B1B68B3
:10594000A3420ED0002B12D0DA68A2420DD0130071
:10595000F8E7228D2A4B9A42DED1CAE729480CF09B
:10596000A9F9DA68254B1A6001E0E268DA600023E1
:10597000E360254B01221A70244B1B68A34205D01B
:105980002000FFF76BFB002004B010BD02F06EF8A2
:10599000F9E7E38A002B12D01D4B1B68A34206D007
:1059A000002B0AD0DA68A24205D01300F8E7DA68C3
:1059B000174B1A6001E0E268DA600023E360200020
:1059C000FFF74CFB0020DFE72000FFF7C1FA2100C2
:1059D0001048FFF785FD2000FFF7DAFA0020D3E733
:1059E00021000648FFF77CFD074B01221A702000BA
:1059F000FFF734FB0020C7E7689C011084E5002016
:105A0000A02D0000889C0110F5E500208CE5002009
:105A100088E5002090E5002010B500280AD0037D1D
:105A2000012B03D0438B1022134343830121FFF743
:105A300055FF10BD02480EF009FD10204042F8E766
:105A4000A49C011010B508001400002909D0002AF8
:105A50000DD01189FFF7A0FB2000FEF71DFE0020EE
:105A600010BD06480EF0F2FC10204042F8E7002B73
:105A700001D00020F4E7FFF7CFFFF1E7BC9C011055
:105A8000F8B5041E25D0866F777B002383678433A7
:105A9000C558002D23D00023320001000069A8471B
:105AA0000500002D23D1BB0627D5238D144A934230
:105AB00001D0013323858423E658002E1DD02069B0
:105AC000002300222100B04703000D3315D105004B
:105AD00013E00C480EF0BAFC10256D420DE00023D7
